:100000005026002081730000757300007773000094
:100010007D730000797300007B7300007F73000024
:100020007F7300007F7300007F7300007F73000008
:100030007F7300007F730000BB310000C92B0000FC
:10004000E7140000F1140000FB1400000515000087
:100050000F15000019150000231500002D150000D4
:1000600037150000411500004B1500005515000024
:100070005F15000069150000731500007D15000074
:1000800087150000911500009B150000A5150000C4
:10009000AF150000B9150000C3150000CD15000014
:1000A000D7150000E1150000EB150000F515000064
:1000B000FF15000009160000131600001D160000B1
:1000C00027160000311600003B1600004516000000
:1000D0004F16000059160000631600006D16000050
:1000E00077160000811600008B16000095160000A0
:1000F0009F160000A9160000B3160000BD160000F0
:10010000C7160000D1160000DB160000E51600003F
:10011000EF160000F9160000031700000D1700008D
:1001200017170000211700002B17000035170000DB
:1001300000B587B001F0BEF901F057FB0320049031
:100140000020039040200290DFF8A40501900320D6
:1001500000900323DFF89C2500210FF21D0001F021
:10016000CBFF05AADFF89015032002F02DF801F06F
:10017000A2FB002007B000BD10B582B002F030F93C
:1001800002F031FD01F0B8FB012002F051FDDFF873
:100190006C15086000F0C2F900F059FA00F08AFA14
:1001A00005208DF8000000AA0121002002F02AFE9F
:1001B000DFF84C250121002002F056FE0221DFF875
:1001C000440502F0EBFE0421DFF8380502F0E6FEFC
:1001D0000821DFF8300502F0E1FE0121DFF82405F7
:1001E00002F0DCFE2021DFF8200502F0D7FE10210E
:1001F000DFF8140502F0D2FE0821DFF80C0502F04A
:10020000CDFE0421DFF8000502F0C8FE0221DFF870
:10021000F80402F0C3FE0121DFF8EC0402F0BEFE98
:100220004021DFF8E40402F0B6FE0121DFF8DC042F
:1002300002F0B4FE0C21DFF8D80400F026F80C21FF
:10024000DFF8D00400F021F80C21DFF8CC0400F036
:100250001CF80C21DFF8C40400F017F8DFF8C00424
:100260000178DFF8C00400F010F8002408E0002452
:1002700001F0C2F8642300220021002002F027FFD1
:10028000B4F5966FF3DA1634F2E7F8B504000D0012
:10029000002600AA0021DFF86404006802F0F0FCE8
:1002A000002702F06DFF0700EDB22A002100DFF801
:1002B000780402F0B5FFB6B2DFF86C04315C761C4E
:1002C000C9B289B2DFF8640403F051F88021DFF885
:1002D0005C0403F050F80028F8D02800C0B2B6B291
:1002E00080B28642E7D3642300220021002002F07E
:1002F000EEFE380002F048FFDFF80004006802F06C
:1003000041FDF1BD1FB5040000A8DFF82414102240
:1003100003F04CF8A4B24FF47A7094FBF0F0303054
:100320008DF80700A4B24FF47A7094FBF0F100FB53
:100330001140642190FBF1F030308DF80800A4B238
:10034000642094FBF0F100FB11400A2190FBF1F0D6
:1003500030308DF80900A4B20A2094FBF0F100FBC4
:10036000114030308DF80A00A4B20A2C09D22020A6
:100370008DF8070020208DF8080020208DF8090056
:1003800011E0A4B2642C06D220208DF807002020B2
:100390008DF8080007E04FF47A70A4B2844202D2CC
:1003A00020208DF80700102100A8FFF76EFFA4B2EF
:1003B000162094FBF0F0152813DA8121A4B2162040
:1003C00094FBF0F08122DB4B02FB0030FFF75DFF76
:1003D0008121D948FFF759FF5D21D848FFF755FF24
:1003E00030E0A4B2162094FBF0F0292815DA812120
:1003F000D348FFF74AFF8121A4B2162094FBF0F006
:100400008122CD4B02FB0030A0F61420FFF73DFF08
:100410005D21CA48FFF739FF14E08121C848FFF782
:1004200034FF8121C748FFF730FF5D21A4B21620B9
:1004300094FBF0F05D22C14B02FB0030A0F6886017
:10044000FFF723FF1FBD1FB5040000A8BE491022FF
:1004500002F0ACFFE4B2642094FBF0F030308DF891
:100460000700E4B2642094FBF0F100FB11400A2184
:1004700090FBF1F030308DF80800E4B20A2094FBD4
:10048000F0F100FB114030308DF80900E4B20A2C85
:1004900006D220208DF8070020208DF8080005E006
:1004A000E4B2642C02D220208DF807000F2100A8AE
:1004B000FFF7EBFEE4B2042094FBF0F0142815DA09
:1004C0007B21E4B2042094FBF0F07B229F4B02FBE3
:1004D0000030FFF7DAFE962300220021002002F010
:1004E000F6FD2D219A48FFF7D0FE16E07B219948B2
:1004F000FFF7CBFE962300220021002002F0E7FD4B
:100500002D21E4B2042094FBF0F02D22904B02FB4D
:100510000030A0F6D810FFF7B8FE1FBD00B587B0B9
:100520000320049000200390402002908A4801900C
:10053000042000900423894A00210FF2150001F0E5
:10054000DBFD05AA8649042001F03EFE07B000BD90
:1005500070B58CB0002632E0E4B200A830F8140088
:1005600002F050FF00227F4B02F05AFF03F02AF8FE
:10057000E4B200A921F81400641CE4B2082CEBD307
:10058000BDF8060002F03EFF5FF03332764B03F019
:100590003FF803F017F875490880BDF8080002F02D
:1005A00031FF0022724B03F033F803F00BF871496E
:1005B0000880142300220021002002F088FD00257D
:1005C00005E0EDB204A8002140F825106D1CEDB245
:1005D000082DF6D302F0D4FD0600002511E0E4B2A8
:1005E00004A850F82400E4B2634931F81410081844
:1005F000E4B204A941F82400641CE4B2082CEED350
:100600006D1CEDB2202D0ED20121DFF8E00D03F0BC
:1006100082F9022003F09BFA0028FAD0022003F0AE
:10062000A7FA0024E9E7300002F0AEFD002409E05B
:10063000E4B204A850F824004009E4B200A921F86B
:100640001400641CE4B2082CF2D3002495E700B532
:1006500087B0032004900020039040200290474878
:100660000190062000900623454A00210FF2150054
:1006700001F042FD05AADFF8B41D062001F0A4FD3B
:1006800007B000BD10B5002402F07AFD0400374821
:100690000088FFF737FE142300220021002002F01B
:1006A00016FD34480088C0B2FFF7CDFE200002F0EE
:1006B0006BFDE9E700B587B00320049000200390AC
:1006C00020200290DFF8280D0190052000900523DE
:1006D000DFF8202D00210FF2AD0001F00DFD05AA7D
:1006E000DFF84C1D052001F06FFD07B000BD0000D4
:1006F000F81A0020F41B00208C730000EC2100206D
:10070000422200200018014000140140000C01406A
:100710007C71000088710000A0710000B8710000B9
:10072000507300000C6C0000B80D00200044004025
:1007300088720000CC4700006452000098660000F8
:10074000E0510000785C000098720000FC5C000042
:100750008C6E00001D660000F81B0020F41C0020B9
:1007600038730000007EE33F33330340382200201B
:10077000000027403A220020DC210020F81C002045
:10078000F41D00202DE9F04101245FF0010801274C
:10079000002600250BE04FF48051DFF8980C02F0A2
:1007A000FAFB0121DFF8900C02F0F5FB01264FF473
:1007B0008071DFF8880C02F0E3FB002859D10A238E
:1007C00000220021002002F082FC4FF48071DFF84B
:1007D0006C0C02F0D5FB002840F0DD85FFB2012F44
:1007E0002DD10121DFF8500C02F0D5FB0E21DFF8EE
:1007F000500CFFF74AFD0C21DFF8480CFFF745FDD0
:10080000002302220021002002F061FC4FF48051FD
:10081000DFF8340C02F0BFFB00230122002100208E
:1008200002F055FC4FF48051DFF81C0C02F0B6FBCF
:100830000C21DFF8180CFFF728FD00270FE00F212F
:10084000DFF80C0CFFF721FD0C21DFF8080CFFF797
:100850001CFD0121DFF8E00B02F0A0FB01274FF4A3
:100860008071DFF8D80B02F08BFB002840F09385F5
:10087000F5E74FF40071DFF8C40B02F081FB0028AC
:1008800040F03A820A2300220021002002F01FFCDF
:100890004FF40071DFF8A40B02F072FB002840F067
:1008A0007A8518F101085FFA88F8B8F10B0F01D3C7
:1008B0005FF001085FFA88F8B8F1010F1DD0C0F0B1
:1008C0001182B8F1030F00F08E8051D3B8F1050FFB
:1008D00000F0E980C0F0B780B8F1070F00F0438165
:1008E000C0F01181B8F1090F00F09D81C0F06B815B
:1008F000B8F10A0F00F0C781F4E12021DFF83C0BCA
:1009000002F04CFB1021DFF8340B02F047FB08210A
:10091000DFF8280B02F042FB0421DFF8200B02F085
:100920003DFB0221DFF8140B02F038FB0121DFF858
:100930000C0B02F033FB4021DFF8000B02F02BFB25
:100940008021DFF8F40A02F026FB4FF48071DFF813
:10095000E80A02F023FBDFF8000B0178DFF8FC0A5D
:10096000FFF793FC0721DFF8F80AFFF78EFCB9E1E7
:100970004021DFF8C80A02F011FB1021DFF8BC0AA1
:1009800002F00CFB0821DFF8B40A02F007FB042197
:10099000DFF8A80A02F002FB0221DFF8A00A02F049
:1009A000FDFA0121DFF8940A02F0F8FA2021DFF8BD
:1009B0008C0A02F0F0FA8021DFF87C0A02F0EEFAED
:1009C0004FF48071DFF8700A02F0E5FADFF8880A68
:1009D0004178DFF8900AFFF758FC0721DFF8800A1A
:1009E000FFF753FC7EE14021DFF8500A02F0D6FA0F
:1009F0002021DFF8480A02F0D1FA0821DFF83C0A8A
:100A000002F0CCFA0421DFF8340A02F0C7FA02211E
:100A1000DFF8280A02F0C2FA0121DFF8200A02F00A
:100A2000BDFA1021DFF8140A02F0B5FADFF8280A3F
:100A30008178DFF8340AFFF728FC0721DFF8200A65
:100A4000FFF723FC4EE14021DFF8F00902F0A6FA9F
:100A50002021DFF8E80902F0A1FA1021DFF8DC0913
:100A600002F09CFA0421DFF8D40902F097FA02217F
:100A7000DFF8C80902F092FA0121DFF8C00902F09C
:100A80008DFA0821DFF8B40902F085FADFF8C80909
:100A90000179DFF8D809FFF7F8FB0721DFF8C00973
:100AA000FFF7F3FB1EE14021DFF8900902F076FA30
:100AB0002021DFF8880902F071FA1021DFF87C09A3
:100AC00002F06CFA0421DFF8740902F067FA0221DF
:100AD000DFF8680902F062FA0121DFF8600902F02C
:100AE0005DFA0821DFF8540902F055FADFF86809C9
:100AF0004179DFF87C09FFF7C8FB0721DFF86009BF
:100B0000FFF7C3FBEEE04021DFF8300902F046FAC0
:100B10002021DFF8280902F041FA1021DFF81C0932
:100B200002F03CFA0821DFF8140902F037FA02213A
:100B3000DFF8080902F032FA0121DFF8000902F0BB
:100B40002DFA0421DFF8F40802F025FADFF808098D
:100B50008179DFF82009FFF798FB0721DFF800090A
:100B6000FFF793FBBEE04021DFF8D00802F016FA51
:100B70002021DFF8C80802F011FA1021DFF8BC08C4
:100B800002F00CFA0821DFF8B40802F007FA02219B
:100B9000DFF8A80802F002FA0121DFF8A00802F04D
:100BA000FDF90421DFF8940802F0F5F9DFF8A80850
:100BB000C179DFF8C408FFF768FB0721DFF8A00858
:100BC000FFF763FB8EE04021DFF8700802F0E6F9E2
:100BD0002021DFF8680802F0E1F91021DFF85C0855
:100BE00002F0DCF90821DFF8540802F0D7F90421FB
:100BF000DFF8480802F0D2F90121DFF8400802F0DE
:100C0000CDF90221DFF8340802F0C5F9DFF8480811
:100C1000C179DFF86808FFF738FB0721DFF84008E3
:100C2000FFF733FB5EE04021DFF8100802F0B6F971
:100C30002021DFF8080802F0B1F91021DFF8FC07E5
:100C400002F0ACF90821DFF8F40702F0A7F904215B
:100C5000DFF8E80702F0A2F90121DFF8E00702F06F
:100C60009DF90221DFF8D40702F095F9DFF8E807D3
:100C7000C179DFF80C08FFF708FB0721DFF8E00770
:100C8000FFF703FB2EE04021DFF8B00702F086F902
:100C90002021DFF8A80702F081F91021DFF89C0776
:100CA00002F07CF90821DFF8940702F077F90421BB
:100CB000DFF8880702F072F90221DFF8800702F0FE
:100CC0006DF90121DFF8740702F065F9DFF8880794
:100CD000C179DFF8B007FFF7D8FA0721DFF88007FE
:100CE000FFF7D3FA4FF40071DFF8500702F048F92C
:100CF000002840F05083F5E74FF48061DFF83C07AF
:100D000002F03EF9002840F02F820A230022002141
:100D1000002002F0DCF94FF48061DFF8200702F0D8
:100D20002FF9002840F037835FFA88F8B8F1020FF6
:100D300001D25FF00B08B8F101085FFA88F8B8F14A
:100D4000010F1DD0C0F00782B8F1030F00F08E80B4
:100D500051D3B8F1050F00F0E980C0F0B780B8F1C9
:100D6000070F00F04381C0F01181B8F1090F00F0C6
:100D70009D81C0F06B81B8F10A0F00F0C781EAE1F4
:100D80002021DFF8B80602F009F91021DFF8AC06DF
:100D900002F004F90821DFF8A40602F0FFF80421AC
:100DA000DFF8980602F0FAF80221DFF8900602F068
:100DB000F5F80121DFF8840602F0F0F84021DFF8B1
:100DC0007C0602F0E8F88021DFF86C0602F0E6F815
:100DD0004FF48071DFF8600602F0DDF8DFF8780686
:100DE0000178DFF87806FFF750FA0721DFF8700680
:100DF000FFF74BFAAFE14021DFF8400602F0CEF8F2
:100E00001021DFF8380602F0C9F80821DFF82C06B7
:100E100002F0C4F80421DFF8240602F0BFF8022132
:100E2000DFF8180602F0BAF80121DFF8100602F028
:100E3000B5F82021DFF8040602F0ADF88021DFF8D4
:100E4000F80502F0A8F84FF48071DFF8EC0502F025
:100E5000A5F8DFF804064178DFF80806FFF715FA71
:100E60000721DFF8FC05FFF710FA74E14021DFF8F5
:100E7000CC0502F093F82021DFF8C00502F08EF8CF
:100E80000821DFF8B80502F089F80421DFF8AC0585
:100E900002F084F80221DFF8A40502F07FF80121B6
:100EA000DFF8980502F07AF81021DFF8900502F0DB
:100EB00072F8DFF8A4058178DFF8AC05FFF7E5F9F3
:100EC0000721DFF89C05FFF7E0F944E14021DFF856
:100ED0006C0502F063F82021DFF8600502F05EF88F
:100EE0001021DFF8580502F059F80421DFF84C050D
:100EF00002F054F80221DFF8440502F04FF8012116
:100F0000DFF8380502F04AF80821DFF8300502F072
:100F100042F8DFF844050179DFF85005FFF7B5F92D
:100F20000721DFF83C05FFF7B0F914E14021DFF8B5
:100F30000C0502F033F82021DFF8000502F02EF84E
:100F40001021DFF8F80402F029F80421DFF8EC049E
:100F500002F024F80221DFF8E40402F01FF8012176
:100F6000DFF8D80402F01AF80821DFF8D00402F004
:100F700012F8DFF8E4044179DFF8F404FFF785F9AB
:100F80000721DFF8DC04FFF780F9E4E04021DFF817
:100F9000AC0402F003F82021DFF8A00401F0FEFF0A
:100FA0001021DFF8980401F0F9FF0821DFF88C0424
:100FB00001F0F4FF0221DFF8840401F0EFFF0121CA
:100FC000DFF8780401F0EAFF0421DFF8700401F093
:100FD000E2FFDFF884048179DFF89804FFF755F920
:100FE0000721DFF87C04FFF750F9B4E04021DFF877
:100FF0004C0401F0D3FF2021DFF8400401F0CEFFC4
:101000001021DFF8380401F0C9FF0821DFF82C04B3
:1010100001F0C4FF0221DFF8240401F0BFFF012129
:10102000DFF8180401F0BAFF0421DFF8100401F022
:10103000B2FFDFF82404C179DFF83C04FFF725F99B
:101040000721DFF81C04FFF720F984E04021DFF8D6
:10105000EC0301F0A3FF2021DFF8E00301F09EFF85
:101060001021DFF8D80301F099FF0821DFF8CC0345
:1010700001F094FF0421DFF8C40301F08FFF012188
:10108000DFF8B80301F08AFF0221DFF8B00301F0B6
:1010900082FFDFF8C403C179DFF8E003FFF7F5F85A
:1010A0000721DFF8BC03FFF7F0F854E04021DFF838
:1010B0008C0301F073FF2021DFF8800301F06EFF45
:1010C0001021DFF8780301F069FF0821DFF86C03D5
:1010D00001F064FF0421DFF8640301F05FFF0121E8
:1010E000DFF8580301F05AFF0221DFF8500301F046
:1010F00052FFDFF86403C179DFF88403FFF7C5F816
:101100000721DFF85C03FFF7C0F824E04021CB485B
:1011100001F044FF2021C94801F040FF1021C748D9
:1011200001F03CFF0821C54801F038FF0421C34805
:1011300001F034FF0221C14801F030FF0121BF4816
:1011400001F029FFC448C179CE48FFF79EF8072176
:10115000C348FFF79AF84FF48061B84801F010FFD8
:10116000002840F01881F6E74FF40061B34801F021
:1011700007FF002840F0B9800A2300220021002048
:1011800001F0A5FF4FF40061AC4801F0F9FE002822
:1011900040F00181641CE4B2052C00D30124E4B2C8
:1011A000012C07D0C0F09980032C4DD027D3042CFC
:1011B0006FD092E00C21B448FFF767F80C21B348D8
:1011C000FFF763F80C21B248FFF75FF80C21B14834
:1011D000FFF75BF80221B04801F0E0FE0421AE48C1
:1011E00001F0DCFE0821AC4801F0D8FE0121AA483C
:1011F00001F0D4FE07219A48FFF747F86DE00C2173
:10120000A648FFF742F80C21A048FFF73EF80C2152
:101210009F48FFF73AF80C21A148FFF736F8012163
:101220009D4801F0B8FE04219B4801F0B7FE08215B
:10123000994801F0B3FE0221974801F0ACFE072166
:101240008748FFF722F848E00C219448FFF71DF883
:101250000C218D48FFF719F80C218D48FFF715F880
:101260000C219048FFF711F801218B4801F093FE03
:101270000221894801F092FE0821874801F08EFE84
:101280000421854801F087FE07217548FEF7FDFF20
:1012900023E00C218148FEF7F8FF0C217A48FEF785
:1012A000F4FF0C217948FEF7F0FF0C217E48FEF791
:1012B000ECFF0121784801F06EFE0221764801F032
:1012C0006DFE0421744801F069FE0821724801F0A6
:1012D00062FE07216248FEF7D8FF4FF400615748CD
:1012E00001F04EFE002856D1F7E74FF480515348E5
:1012F00001F046FE00282CD10A2300220021002004
:1013000001F0E5FE4FF480514C4801F039FE002811
:1013100041D1EDB2002D0AD180214B4801F03BFEB6
:101320004FF40071484801F039FE012509E04FF4FF
:101330000071454801F02FFE8021434801F02EFE48
:1013400000254FF480513D4801F01AFE002822D1BB
:10135000F7E74FF40051394801F012FE002814D18C
:101360000A2300220021002001F0B1FE4FF40051B9
:10137000324801F005FE00280DD14FF400512F48EE
:1013800001F0FEFD002806D1F7E70A230022002124
:10139000002001F09CFE4FF40071274801F0F0FDA1
:1013A00000287FF404AA002302220021002001F07B
:1013B0008EFE4FF40071204801F0E2FD00287FF41A
:1013C000F6A9F6B2002E3FF4E6A9F6B2012E7FF49C
:1013D000EEA94FF48051174801F0E0FD01211648B5
:1013E00001F0DCFD0026FFF7E2B900000024014017
:1013F00028200020A420002010B502212B4802F054
:1014000057FC00280DD0294802F050FC284991FBD8
:10141000F0F00A2190FBF1F40221244802F05FFC75
:1014200000E00024200080B210BD0000A87200007F
:101430004473000000080140000C0140001401400A
:10144000B87200000872000000100140FC7100003A
:10145000C872000014720000507300000C6C000091
:10146000947300004C6C00008C6C0000CC6C00008D
:101470000C6D00004C6D00008C6D0000CC6D000008
:101480000C6E00004C6E000088710000A07100001E
:10149000B87100007C7100000018014070710000FC
:1014A00094710000AC710000C471000000040040A1
:1014B00000A24A0480B502F053FC01BD80B53C286F
:1014C00003D21030C0B202F061FC01BD38B5040097
:1014D0000D003C2C06D202F047FCA44941F82450F0
:1014E00002F046FC31BD80B5002000F028F901BDB6
:1014F00080B5012000F023F901BD80B5022000F085
:101500001EF901BD80B5032000F019F901BD80B5B9
:10151000042000F014F901BD80B5052000F00FF99A
:1015200001BD80B5062000F00AF901BD80B5072095
:1015300000F005F901BD80B5082000F000F901BDFB
:1015400080B5092000F0FBF801BD80B50A2000F04D
:10155000F6F801BD80B50B2000F0F1F801BD80B5B3
:101560000C2000F0ECF801BD80B50D2000F0E7F88C
:1015700001BD80B50E2000F0E2F801BD80B50F205E
:1015800000F0DDF801BD80B5102000F0D8F801BDF5
:1015900080B5112000F0D3F801BD80B5122000F015
:1015A000CEF801BD80B5132000F0C9F801BD80B5AB
:1015B000142000F0C4F801BD80B5152000F0BFF87C
:1015C00001BD80B5162000F0BAF801BD80B5172026
:1015D00000F0B5F801BD80B5182000F0B0F801BDED
:1015E00080B5192000F0ABF801BD80B51A2000F0DD
:1015F000A6F801BD80B51B2000F0A1F801BD80B5A3
:101600001C2000F09CF801BD80B51D2000F097F86B
:1016100001BD80B51E2000F092F801BD80B51F20ED
:1016200000F08DF801BD80B5202000F088F801BDE4
:1016300080B5212000F083F801BD80B5222000F0A4
:101640007EF801BD80B5232000F079F801BD80B59A
:10165000242000F074F801BD80B5252000F06FF85B
:1016600001BD80B5262000F06AF801BD80B52720B5
:1016700000F065F801BD80B5282000F060F801BDDC
:1016800080B5292000F05BF801BD80B52A2000F06C
:1016900056F801BD80B52B2000F051F801BD80B592
:1016A0002C2000F04CF801BD80B52D2000F047F84B
:1016B00001BD80B52E2000F042F801BD80B52F207D
:1016C00000F03DF801BD80B5302000F038F801BDD4
:1016D00080B5312000F033F801BD80B5322000F034
:1016E0002EF801BD80B5332000F029F801BD80B58A
:1016F000342000F024F801BD80B5352000F01FF83B
:1017000001BD80B5362000F01AF801BD80B5372044
:1017100000F015F801BD80B5382000F010F801BDCB
:1017200080B5392000F00BF801BD80B53A2000F0FB
:1017300006F801BD80B53B2000F001F801BD10B5F1
:10174000040002F011FB0A490978491C084A11708B
:1017500002F00EFB3C2C06D2044850F82400010095
:10176000002900D0804700F05CF810BDF81D002073
:1017700045220020F8B505000E0014000027002CBB
:1017800032D0002D02D1042020702DE0002E02D195
:101790000C20207028E0DFF880070078012802D3B1
:1017A0001220207020E02878401E03280ED801F077
:1017B000E7FC0700300000F03EFBC0B2102808D361
:1017C000380001F0E1FC0B2020700DE001202070BA
:1017D0000AE0310015F10F0000F01EFB0500380093
:1017E00001F0D2FC00202070F1BD80B501F094F929
:1017F00000F014FA00F039FA00F095FA00F0E6F97A
:1018000002F03AFB02F062FB02F088FB00F04DFAB6
:1018100000F06AFA02F0A7FB01F082F902F0D8FCAE
:1018200001BD10B50024DFF858080078012841D127
:1018300001F0A6FC0400DFF8E0060078012806D3DA
:10184000DFF8D4060078401EDFF8CC160870DFF809
:10185000C806007800282AD1DFF8C00600780028E2
:1018600025D100F0C9FADFF81C080078DFF8181855
:10187000097888421BD0DFF80C080078DFF80C18D4
:1018800051F82000DFF808180860DFF80408006845
:10189000806B401CDFF8F81709688863DFF8F407ED
:1018A0000068401CDFF8EC17086001F082FC2000A3
:1018B00001F06AFC10BD80B5DFF8C407007800288D
:1018C00019D100F099FADFF8C007DFF8B8170978E6
:1018D0000170DFF8B0070078DFF8B01751F820008A
:1018E000DFF8AC170860DFF89407DFF8A417096881
:1018F000016001F04CFC01BD10B50024022001F094
:10190000B5FB01F03DFC0400DFF88C07002101600D
:10191000200001F039FC642001F0A8FB01F030FC4C
:101920000400DFF87807DFF8701709680160DFF856
:10193000700701210170200001F026FC10BD38B5B0
:10194000002401F031F901F01BFC0400DFF854071A
:101950000068401CDFF84C170860200001F014FC00
:10196000DFF81C07007801285ED1DFF83C0700781B
:10197000002803D0022805D002D309E001200CE0A2
:1019800000200AE00120DFF8201701220A7004E09D
:101990000120DFF8141700220A70C0B2002843D0DB
:1019A000DFF80807056820E0002085F8310095F889
:1019B0003000000715D4DFF8F806007895F83610E7
:1019C0000843DFF8EC16087095F83400DFF8E416E9
:1019D000405C95F83510084395F83410DFF8D426AC
:1019E00088546D69200001F0CFFB95F832001F2864
:1019F0001AD001F0C5FB0400E88D0028F1D0E88D75
:101A0000401EE88580B20028EBD195F830003721E0
:101A10000842C9D095F8300010F0C80085F83000B1
:101A2000012085F83100C2E731BDF8B50400A07A85
:101A3000DFF88456405DC0B20519ED7ADFF87866AC
:101A4000AD5DC0B2EDB215EBC005EDB2DFF83C669E
:101A500056F825600027F785716296F8301091439B
:101A600086F8301086F8313096F83010090713D414
:101A7000DFF83C16097896F836201143DFF8302657
:101A80001170C0B2DFF82C16415C96F83520114376
:101A9000C0B2DFF8202681542100300000F051F858
:101AA000306A002804D0316A300000F063F8F46135
:101AB0002800C0B2F2BDDFF8C4150968C861DFF8BC
:101AC000BC15096891F834100918C97ADFF8AC25FB
:101AD000126892F835201143DFF8A025126892F8B9
:101AE00034201218D172817ADFF89025126892F8AA
:101AF000362011438172DFF88405006890F83400C5
:101B0000C0B2DFF8B015415CDFF87025126892F8BA
:101B100035209143C0B2DFF89C258154C0B2DFF874
:101B20009415405C00280BD1DFF884050078DFF8BD
:101B30004C15096891F836108843DFF87415087061
:101B4000704710B490F83420D2B25318DB7A90F872
:101B50003540A343D2B25418E372D2B25218D27AAB
:101B6000002A05D18A7A90F8360032EA000088729D
:101B700010BC704770B490F8342090F8363090F86C
:101B80003540086810E0D2B21518ED7AA543D2B2FC
:101B90001618F572D2B21518ED7A002D02D1857A99
:101BA0009D438572091D08680028ECD170BC704700
:101BB0000021817200F20B00002103E0002202707C
:101BC000401C491CC9B20429F8D3704780B54FF4B2
:101BD000A071DFF8E80400F0D8F8DFF8E014DFF8CF
:101BE000E024002009E000230B704A603F23CB7300
:101BF00000230B7420312032401C80B20928F2D31C
:101C000000200870002048603F20C873002008743E
:101C1000DFF8B004DFF8A414016001BDDFF884042C
:101C200000210160BC4800210170BC480021017006
:101C3000DFF8940400210170DFF8440400210170F2
:101C4000DFF8500400210160DFF84C04002101603E
:101C5000DFF8780400210160DFF840040021016012
:101C6000DFF83C04002101707047DFF844040021D4
:101C70000170DFF84014002003E000220A70491CC4
:101C8000401CC0B20428F8D3DFF8FC030021017027
:101C9000DFF8F00300210170DFF8F4030021016098
:101CA000DFF8D80300210160704710B586B003202B
:101CB00004900020039080200290DFF8140401902B
:101CC0004FF6FF7000901F23DFF8082400210FF269
:101CD0007D1000F011FA040005AADFF8FC131F20A4
:101CE00000F072FA06B010BD10B586B00320049063
:101CF0000020039080200290DFF8E00301904FF66F
:101D0000FE7000901E23DFF8D82300210FF2591037
:101D100000F0F2F9040005AADFF8C8131E2000F055
:101D200053FA06B010BD80B54FF4CF61DFF8B803A9
:101D300000F02BF88021DFF8540300F026F8DFF8DC
:101D4000A813DFF8A82300200BE04A613F2381F8A5
:101D50004C30002381F84D3001F25C0102F25C024C
:101D6000401CC0B21128F0D3002048613F2081F808
:101D70004C00002081F84D00CC4800210160DFF8C4
:101D80007003DFF86413016001BD03E000220270FC
:101D9000401C491E89B20129F8D2704710B50024B1
:101DA00001F0EEF904005C480078002820D15B487F
:101DB000007800281CD100F01FF8B2480078B24922
:101DC0000978884214D0AF480078B04951F8200013
:101DD000AF490860AE480068806B401CAC49096898
:101DE0008863AC480068401CAA49086001F0DDF92E
:101DF000200001F0C9F910BDAD480078AE49405C43
:101E0000C0B20100C9B2AB4A895CAB4A895C11EB34
:101E1000C0009C4908707047002204E00B780370F2
:101E2000491C401C521C0B78002BF7D1002101707B
:101E30001000C0B27047002101E0401C491C02782C
:101E4000002AFAD10800C0B27047000080B5002017
:101E500001F096F990490968491C8F4A116001F018
:101E600093F900F05FFEF3E780B5002002E0C820A0
:101E700001F0FCF88A4800780028F8D0874800680C
:101E80006421B0FBF1F085490860844800680028AF
:101E900005D1984800210170FF2000F02EFA01F0D2
:101EA0006FF98A497C4A12680A607B4900220A60FD
:101EB00001F06AF98548006878490968B0FBF1F0DB
:101EC000D0F164008B49087000F02DFE00F004F89A
:101ED000642001F0CBF8E2E71CB5002417E000A96C
:101EE0002000C0B200F0C2F9C0B200280ED1E4B2A6
:101EF000664850F82400002808D0012806D0C168A0
:101F0000826812EB8101416401998164641CE4B22E
:101F1000202CE4D313BD00004522002046220020DF
:101F20002DE9F24F050016001F00DDF82880DDF8CE
:101F30002C900C9C5FF0000A01F022F982466C485C
:101F4000D0F800B0BBF1000F00F09280DBF8140075
:101F500067490860504601F017F90098CBF8000077
:101F60008BF8325000208BF8300000208BF83100C5
:101F70000020ABF82E00CBF80490CBF80C80CBF807
:101F80000860ABF81040ABF8127000208BF83700F7
:101F9000EDB2E8088BF8340015F007008BF8330039
:101FA00001209BF9341088408BF8360001209BF902
:101FB000331088408BF835000020CBF81C0000203F
:101FC000CBF820000020CBF828000020CBF824001C
:101FD0000020CBF838000020CBF840000020CBF8E0
:101FE0003C000020CBF844000020CBF848003F2004
:101FF0008BF84C0000208BF84D00584600F0D3FDC4
:10200000584600F08EFD01F0BBF88246EDB21F4845
:1020100040F825B025480068CBF814000020CBF824
:10202000180022480068002803D020480068C0F843
:1020300018B01E48C0F800B01D4800789BF8361054
:1020400008431B4908709BF834001A49405C9BF810
:10205000351008439BF83410164A88541A48007803
:10206000401C19490870504601F08EF8002003E02A
:10207000504601F089F84220BDE8F28F0C22002082
:102080004A2200204822002047220020A8200020C9
:1020900014220020F021002008220020FC21002032
:1020A00044220020242200204C220020182200205C
:1020B0004922002004220020C86F0000B819002027
:1020C000D8190020F42100204B22002000220020FB
:1020D000B8150020B4170020F8720000B8130020D3
:1020E000B415002008730000000000205C000020F0
:1020F00010220020432200202DE9F14F84B00F0070
:1021000090461E000E9CDDF83C90DDF840A0DDF806
:1021100044B0129D0020F6B2202E01D32A2050E0B8
:1021200001F02EF8DFF89C120978012903D301F0A1
:102130002BF83C2045E0F6B2DFF8741251F8261077
:1021400000293BD1F6B2DFF86812012241F82620BF
:1021500001F01AF82A0092B25146484600F034F9CC
:102160002B009BB242463900049800F0DDFC0100D0
:10217000ADB20295CDF804B0CDF800A023009BB21B
:102180004A463000C0B2FFF7CBFE0400E4B2002C98
:1021900007D1DFF82C02007801280CD1FFF7FEFDF3
:1021A00009E000F0EDFFF6B2DFF80412002241F87A
:1021B000262000F0E9FF2000C0B202E000F0E4FFBA
:1021C000282005B0BDE8F08FF8B507000D00140019
:1021D0000026002C49D0FFB2202F05D3FFB2FF2FDD
:1021E00002D02A20207040E0002D02D10C20207067
:1021F0003BE074480078012802D31220207034E0BC
:1022000000F0BEFF0600FFB2FF2F03D1694800684F
:1022100090F83270FFB2664850F82770002F05D151
:10222000300000F0B1FF432020701EE0012F05D1E7
:10223000300000F0A9FF4320207016E02800FFF7CF
:10224000FAFDC0B2102805D3300000F09DFF4120F8
:1022500020700AE0290017F14C00FFF7DDFD0500B2
:10226000300000F091FF00202070F1BDF8B50500AE
:102270000C000020EDB2202D04D3EDB2FF2D01D0D3
:102280002A2039E0002C01D1092035E0002020600F
:102290000020606000F074FFEDB2FF2D03D14549CE
:1022A000096891F83250EDB2414951F825100029E2
:1022B00003D100F069FF43201EE0012903D100F0A3
:1022C00063FF432018E00A7CD20703D400F05CFFD0
:1022D000452011E00026CF688D6800F055FF00E032
:1022E000761C2800051D00680028F9D0B000206089
:1022F000B81B800060600020F2BD38B505000020EA
:10230000EDB21F2D01D1472051E0EDB21F2D04D3B6
:10231000EDB2FF2D01D02A2049E000F031FFEDB2EF
:10232000FF2D05D12349096891F83250012409E0B5
:102330002049096891F83210EDB28D4201D1012493
:1023400000E00024EDB21A4951F82510002903D10C
:1023500000F01AFF48202AE0012903D100F014FF01
:10236000432024E091F83420D2B2134BD35C91F88F
:102370003550AB43D2B2104D5355D2B20E4BD25C56
:10238000002A06D10D4A127891F836309A430B4B49
:102390001A7091F8302052F0080281F8302000F0D5
:1023A000F3FEE4B2012C01D1FFF7F8FC002032BDAE
:1023B000A82000200C220020042200204922002016
:1023C0004A22002045220020D30708D5920704D4D2
:1023D00005E0491E00220260001D0029F9D1704766
:1023E00080B500F0F5F800F01AF800F07AFA00F085
:1023F000C4F900F058F900F0E6FA00F011FB00F023
:1024000039FB01BD80B5DFF8A40602F048F8DFF81B
:102410009C06406802BD80B5FFF7F4FF02BD80B5A1
:102420000420ADF8000018208DF8030003208DF87B
:10243000020000A9DFF8780600F03CFD0820ADF8A6
:10244000000048208DF8030003208DF8020000A949
:10245000DFF85C0600F02EFD41F21000ADF8000040
:1024600010208DF8030003208DF8020000A9DFF88A
:10247000400600F01FFD4FF48070ADF80000102002
:102480008DF8030003208DF8020000A9DFF8200674
:1024900000F010FDA020ADF8000018208DF803001A
:1024A00003208DF8020000A9DFF8040600F002FD09
:1024B0004020ADF8000004208DF8030003208DF8C3
:1024C000020000A9DFF8E80500F0F4FC0320ADF8F5
:1024D000000000208DF8030000A9DFF8D40500F00B
:1024E000E9FC0121DFF8CC0500F05BFD4020ADF8F0
:1024F000000004208DF8030003208DF8020000A9DD
:10250000DFF8AC0500F0D6FC40F22120ADF8000069
:1025100048208DF8030003208DF8020000A9DFF8A1
:10252000980500F0C7FC4FF4C070ADF8000014200F
:102530008DF8030003208DF8020000A9DFF878056C
:1025400000F0B8FC3F20ADF8000000208DF803003B
:1025500000A9DFF8680500F0ADFC4FF4FC50ADF8C1
:10256000000010208DF8030003208DF8020000A960
:10257000DFF8480500F09EFC4FF47C50ADF80000F9
:1025800004208DF8030003208DF8020000A9DFF875
:10259000300500F08FFC7F20ADF8000010208DF892
:1025A000030003208DF8020000A9DFF8140500F0F5
:1025B00081FC0F20ADF8000010208DF803000320EF
:1025C0008DF8020000A9DFF8FC0400F073FC01BDE7
:1025D00080B501F0B1FE5FF4803001F0DCFE01F067
:1025E00004FFC0B201285DD1102002F035F80220AE
:1025F00002F026F8002001F033FF002001F044FF34
:102600004FF4806001F036FF5FF4E0115FF480303A
:1026100001F008FF012001F010FF392001F0CFFF89
:102620000028FAD0022001F00CFF01F014FF082866
:10263000FBD10121012001F0A2FF0121042001F0C2
:102640009EFF0121082001F09AFF0121102001F0D6
:1026500096FF0121202001F092FF0121402001F08E
:102660008EFF01214FF4805001F089FF01214FF4CA
:10267000804001F084FF01215FF4003001F08FFF02
:1026800001215FF4802001F08AFF01214FF40070E6
:1026900001F075FF0121022001F081FF01210120DD
:1026A00001F05DFF01BD00B585B000200090012064
:1026B0008DF8040000208DF805005FF46020029082
:1026C0000020039008208DF8100000A9DFF8F8031F
:1026D00001F0C2F8052301220021DFF8EC0301F02C
:1026E00027F9052302220121DFF8DC0301F020F99C
:1026F000052303220A21DFF8D00301F019F905238D
:1027000004220B21DFF8C00301F012F90523052292
:102710000C21DFF8B40301F00BF9052306220D218B
:10272000DFF8A40301F004F9052307220E21DFF8E6
:10273000980301F0FDF8052308220F21DFF8880334
:1027400001F0F6F80121DFF8800301F0B8F801216B
:10275000DD4801F0A7F8DC4801F0BFF8DA4801F0E5
:10276000C1F80028FAD1D84801F0C6F8D64801F0DF
:10277000C8F80028FAD105B000BD00B58BB0D34829
:102780000090D34801900020029008200390002080
:102790000490802005904FF4807006904FF4806084
:1027A0000790202008904FF40050099000200A90D4
:1027B00000A9C84801F09FF9022001F0D9F90121D0
:1027C000C44801F0B7F9C44801F018F9C3480090B3
:1027D000C3480190102002904FF400700390002035
:1027E0000490802005900020069000200790002093
:1027F00008904FF44050099000200A9000A9B64874
:1028000001F079F90021B44801F094F9B54801F0DC
:10281000F5F8B2480090B4480190002002904FF4BF
:102820000070039000200490802005900020069006
:1028300000200790002008904FF44050099000209D
:102840000A9000A9A74801F056F90121A54801F016
:1028500071F9A64801F0D2F8A5480090A54801906A
:10286000102002904FF4007003900020049080200C
:1028700005900020069000200790002008904FF45B
:102880004050099000200A9000A9984801F033F9BF
:102890000021964801F04EF9974801F0AFF89448AE
:1028A000009096480190002002904FF40070039031
:1028B00000200490802005900020069000200790C2
:1028C000002008904FF44050099000200A9000A981
:1028D000894801F010F90121874801F02BF90BB06C
:1028E00000BD00B585B04FF4165000900020ADF843
:1028F00004000020ADF806000020ADF8080000201C
:10290000ADF80C000C20ADF80A0000A97C4800F0DE
:102910009FFC012240217A4800F01DFD0122802108
:10292000774800F018FD012240F22441744800F07D
:10293000EBFC0121724800F0D9FC5FF4E13000901B
:102940000020ADF804000020ADF806000020ADF82E
:1029500008000020ADF80C000C20ADF80A0000A91A
:10296000684800F075FC0121664800F0BFFC4FF498
:10297000165000900020ADF804000020ADF80600CD
:102980000020ADF808000020ADF80C000C20ADF8D8
:102990000A0000A95C4800F05BFC012240215A4873
:1029A00000F0D9FC01228021574800F0D4FC01221C
:1029B00040F22441544800F0A7FC0121524800F0A5
:1029C00095FC05B000BD00B585B00020ADF8000055
:1029D0004FF48270ADF802000020ADF80400002032
:1029E000ADF806000020ADF808004FF40070ADF817
:1029F0000A002820ADF80C000020ADF80E000720DA
:102A0000ADF8100000A9414801F034FE01213F4813
:102A100001F050FE1021264800F0BDFA05B000BDBF
:102A2000E0B50020ADF800000020ADF80200012064
:102A3000ADF804000020ADF806000020ADF8080055
:102A400000A9334801F0A8F85021314801F000F9FD
:102A500004212F4801F005F980212D4801F00AF9E1
:102A600001212B4801F0DAF801220221284801F067
:102A7000E3F807BD00B583B00521012000F0C9FAD5
:102A80002020009000208DF8040010208DF8050013
:102A900001208DF8060000A801F028FE1D4917202E
:102AA000FEF714FD1720FEF709FD07BDC821002021
:102AB00000080140000C1A00000C01400010014009
:102AC0000014014000180140002401404C24014042
:102AD000DC2100200800024044000240043801408C
:102AE000B809002058000240B80B00201C0002402A
:102AF00004480040B80F002030000240B811002008
:102B000000380140004400400048004000300140CF
:102B100000040040C9700000404800210180704757
:102B20007047704770477047030010005FF0807275
:102B30000260001F0360001F7FF001020260001F9F
:102B40005FF012320260001F5FF003320260001F6C
:102B50005FF002320260001F5FF001320260001F6E
:102B60000160001F5FF011310160001F5FF0103144
:102B70000160001F5FF009310160001F5FF0083144
:102B80000160001F5FF007310160001F5FF0063138
:102B90000160001F5FF005310160001F5FF004312C
:102BA000016070477047704780B51C480088401C22
:102BB0001A49088019480088642804D3174800215E
:102BC000018001F0C9F901BD80B500F0D9FA1449BE
:102BD0000978491C124A117000F0D6FAFEF7AFFED0
:102BE000FEF71FFE01BD80B5FFF715FC4FF47A71AB
:102BF000B0FBF1F0401E0B4908600B48FF2101704B
:102C00000A48006850F00500084908600748006855
:102C100050F002000549086001BD0000402200207C
:102C20004522002014E000E023ED00E010E000E089
:102C300038B5040000204F490978012901D300204C
:102C40001DE000F09DFA4C490D684B4909680029C8
:102C500004D0494909684968474A116000F094FA6C
:102C6000002D0BD0032028702C81002068603F20AD
:102C7000E873002028742800FEF79AFF280032BD70
:102C8000F8B505000E0014000027002C6FD0002DB1
:102C900002D1042020706AE02878032802D00120A5
:102CA000207064E033480078012802D302202070AD
:102CB0005DE032480078012802D30D20207056E0F4
:102CC00000F05EFA07002889012808D32889401EF1
:102CD0002881380000F058FA0020207047E028488A
:102CE000006890F8300050F001002549096881F82B
:102CF000300023480068002180F831102048006827
:102D0000C6852800FEF7D7FE380000F03DFAFFF731
:102D100045F800F035FA07001948006890F83100CE
:102D2000002802D0022803D005E00020207009E02E
:102D30000E20207006E0290011480068FEF701FF10
:102D40000A2020700E480068002180F830100C48DE
:102D50000068002180F83110094800680021C16135
:102D60000748006800210162380000F00DFAF1BD4B
:102D70000000000045220020F4210020462200200F
:102D80000C22002038B504000025002C01D10420BD
:102D900029E02078032801D0012024E000F0F0F998
:102DA0000500A07A00280DD0002301220021200078
:102DB000FEF73BFE0400280000F0E6F9FEF7EEFF08
:102DC000002010E020894FF6FF71884207D020894B
:102DD000401C2081280000F0D7F9002003E02800E3
:102DE00000F0D2F9322032BD002000210022100074
:102DF00003E0491C1029FCDB401C202801DA0021DB
:102E0000F8E7704770B504000D001600102128483F
:102E100000F0C4F8FFF7E8FF062001F0BBFCFFF765
:102E2000E3FF1021224800F0B6F8FFF7DDFF102184
:102E30001F4800F0B3F8FFF7D7FF022001F0AAFC0B
:102E40002000C0B201F0A6FC002403E0A05D01F068
:102E5000A1FC641CEDB2AC42F8D3FFF7C5FF102112
:102E6000134800F098F870BD70B504000D0016000E
:102E700010210F4800F092F8FFF7B6FF032001F091
:102E800089FC2000C0B201F085FC002405E0002090
:102E900001F080FC3070761C641CEDB2AC42F6D3BD
:102EA000FFF7A2FF1021024800F075F870BD000086
:102EB00000080140F0B40022002600240025002371
:102EC000002791F803C01CF00F0C624691F803C074
:102ED0005FEACC6C01D58B781A430B781B0621D0A6
:102EE0000368002406E0CD78482D02D10125A540D5
:102EF0000561641C082C14D20125A5400E882E40C3
:102F0000AE42F6D1A5000F2616FA05F7BB4312FA1A
:102F100005F52B43CD78282DE5D10125A540456148
:102F2000E7E703600B884FF48074A34226D343681D
:102F3000002420E0012514F10806B5400E882E403B
:102F4000AE4217D1A5000F2616FA05F7BB4312FAB9
:102F500005F52B43CD78282D04D1012514F1080661
:102F6000B5404561CD78482D04D1012514F10806FE
:102F7000B5400561641C082CDCD34360F0BC70478D
:102F80000022806880B2084201D0012200E00022C5
:102F90001000C0B2704789B20161704789B24161C7
:102FA000704770B400220024002300252D4E36689F
:102FB0003300C0F30346350086B2320010F44016E9
:102FC000B6F5401F08D133F07063264C246834F006
:102FD0007064244D2C600FE0C40205D50324AC407E
:102FE000A34353F0706307E0440DE4B2240112FAE6
:102FF00004F4A34353F07063C9B2002905D0400D17
:10300000C0B2000112FA00F003431648036070BC1E
:10301000704710B400220F2311F00304E4B2A4009F
:10302000A3401A00C9B28B100F4C54F8233033EA76
:103030000202C9B28B100C4C44F82320C9B28A108A
:10304000094B53F82220C0B211F00303DBB29B00FE
:1030500098401043C9B28910034A42F8210010BCBD
:1030600070470000040001400800014010B5040052
:1030700000203F490978012928D2A4B2012C25D388
:1030800000F07EF83B49096891F83410C9B23A4A19
:103090008A5C384B1B6893F835309A43C9B2364B7B
:1030A000CA54C9B2344A895C002908D13349097825
:1030B000304A126892F836209143304A11702D49F7
:1030C0000968CC8500F060F8FEF768FE10BD38B5E1
:1030D000274C2478012C01D3552048E0C0B20028A9
:1030E0000AD1C9B2002907D1D2B2002A04D19BB2B9
:1030F000002B01D154203AE0C9B23C2901D3512020
:1031000035E0D2B23C2A01D3522030E04FF47A7439
:103110009BB2A34201D3532029E0C0B24FF46164B3
:10312000C9B23C25694304FB0010D2B210184FF419
:103130007A719BB24FF47A7202FB03F24FF47A7306
:10314000B2FBF3F201FB0020040C80B280B2FFF767
:103150008DFF08E04FF40040FFF788FF4FF4004078
:10316000FFF784FF641EA4B2012CF3D2002032BD0D
:10317000452200200C2200200422002049220020A9
:10318000EFF3108072B6704780F3108870471B48C9
:10319000FF210170002080F3098819480121017086
:1031A00018481949016062B6FEE7164816490160E1
:1031B0007047144814490160704772B6EFF30980F4
:1031C00028B1203880E8F00F10490968086000B580
:1031D0000F4880475DF804EB0E480F490A780270EB
:1031E0000A480E490A680260106890E8F00F203023
:1031F00080F309884EF0040E62B6704722ED00E0BD
:103200004A22002004ED00E0000000100C22002003
:10321000A52B000047220020482200201422002075
:1032200010B50400200000F0B1F8200010BD50F8E7
:10323000041B61B150F8042BD30744BFA9F101036B
:103240009A18002342F8043B091FFAD1EFE77047B0
:103250002DE9F04385B004000D0000200026002772
:103260005FF000085FF00009A146218A08004CF6D3
:10327000FF710840E98808432082A0894EF6F311C7
:103280000840A9882A8911436A8911430843A0810B
:10329000A08A4FF6FF410840A9890843A08200A8F0
:1032A00001F0FDF81048814501D1039E00E0029E27
:1032B000192000FB06F029688900B0FBF1F76420B3
:1032C000B7FBF0F000010109642202FB11785FEA0C
:1032D000081132316422B1FBF2F111F00F01084301
:1032E000208105B0BDE8F08300380140C9B2002953
:1032F00004D0818951F40051818104E081894DF627
:10330000FF7211408181704770B4002400250026AF
:10331000002303000800C0B24009C0B2040089B213
:1033200011F01F0005000120A8400600012C01D16A
:103330000C3304E0022C01D1103300E01433D2B27C
:10334000002A03D018683043186002E01868B043C0
:10335000186070BC7047D2B2002A03D0828A114331
:10336000818203E0828A32EA010181827047C905C5
:10337000C90D8180704700220088084201D00122D7
:1033800000E000221000C0B27047010062B38B075A
:1033900008D0521E11F8013B00F8013B00F02480D8
:1033A0008B07F6D1830740F0208000BF103A07D387
:1033B00030B4B1E83810103AA0E83810F9D230BC77
:1033C000530724BFB1E80810A0E8081044BF51F823
:1033D000043B40F8043BD20724BF31F8022B20F80D
:1033E000022B44BF0B7803707047083A07D3B1E84B
:1033F0000810083A40F8043B40F804CBF7D25307D2
:10340000E4E70A00010000BF09D0B0FA80F188406B
:10341000C91CC1F58461090501EBD0214005704745
:10342000B0B581EA030C0CF0004C40F2FF7515EAD0
:1034300011541DBF15EA1357AC42AF4239E0E419ED
:1034400023EA455343F48013C90241F0004141EAA5
:10345000505EC7021100A7FB020200284FF00000D7
:10346000EEFB01204FF00001E3FB072118BF42F003
:103470000102401800214941E3FB0E01A4F58064DC
:103480000F0302D252004041494154F101046CDD66
:10349000470872F1004250F1000051EB0451A1F5D0
:1034A00080115CBF41EA0C01B0BD4CEA055100201F
:1034B000B0BD05EA1357AC4214BFAF4241E050EA39
:1034C000410E1CBF52EA430E02E061460020B0BD2F
:1034D00024423C441BD15FEA070EF6D0090302BF29
:1034E00001460020AEF1140EB1FA81F7AEEB0704ED
:1034F00001FA07FE0C37C7F1200100FA07F7C840B0
:103500004EEA000E23EA455343F48013A2E733F05A
:103510000043B3FA83F704BFB2FA82FE77440B3F4D
:10352000E41BB7F1200E2FBF02FA0EF3BB40C7F128
:10353000200E22FA0EFE38BF43EA0E03BA40641C86
:1035400082E750EA410E14BF52EA430E6FF00001C9
:103550004FF4001717EB430F8ABF194617EB410FC3
:10356000B5E74CEA05510020B0BDD4F10104B4F137
:1035700020070FDAC4F12007520828BF42F00102E9
:1035800010FA07F501FA07F7E1BF2A43E040384394
:10359000E1400FE0352C98DCC7F1200452EA4002EC
:1035A00020FA07F218BF42F0010231FA07F0A140F9
:1035B0000A43002172F1004250F1000051EB0C016E
:1035C000B0BD1000F446400D40EAC120490006D2CB
:1035D00000F00EF8004248BF6FF00040604700F076
:1035E00007F84FF0004188428CBF084640426047D0
:1035F00040F00040490DA1F58061491C05D4D1F18E
:103600001F0154BFC840C01770474FF000007047FB
:10361000F0B540F2FF7581EA030C0CF0004C15EA9E
:1036200011541DBF15EA1357AC42AF42E5E0BC414F
:10363000C1F31301C3F31303801A994143F48013B8
:1036400004D2641E4000494180185941C90241EA30
:103650005051B1FBF3F603FB1611A2FB0675D7EB35
:10366000C020A94102D2761E80185941C90241EA00
:103670005051B1FBF3FE03FB1E11A2FB0E75D7EBFD
:10368000C020A94103D2AEF1010E80185941890230
:1036900041EA9051760546EA8E2EB1FBF3F603FB24
:1036A0001611A2FB0675D7EB8020A94102D2761E27
:1036B00080185941C90241EA50514EEA060EB1FB49
:1036C000F3F603FB1611A2FB0675D7EBC020A94148
:1036D00002D2761E80185941C90241EA5051B1FB0D
:1036E000F3F703FB1711A2FB0735D3EBC020A94169
:1036F00067F100070CBF004247F0010766F3D527CA
:103700004FEA1E31B80814F5806412DDBD0775F16B
:10371000004250EB0E5051EB045111F5801F5CBF7D
:1037200041EA0C01F0BD4CF07F6141F0E041002026
:10373000F0BDBD076D0840EA0E5041F48011D4F190
:103740000104B4F120060ADAC4F120060200E040C8
:1037500001FA06F3E1401843B24015430EE0342C61
:1037600013DCC6F1200445EA40056D0820FA06F294
:10377000154321FA06F0A1400D43002175F10042E6
:1037800050F1000051EB0C01F0BD00205FEA0C018C
:10379000F0BDCFB992185B41B3FA83F704BFB2FA18
:1037A00082F6BF190B3FB7F120062FBF02FA06F3CE
:1037B000BB40C7F1200622FA06F638BF3343BA40B1
:1037C0001CB1E419641E33E77F4231F00041B1FAC5
:1037D00081F404BFB0FA80F6A4190B3CB4F12006C2
:1037E0002FBF00FA06F1A140C4F1200620FA06F628
:1037F00038BF3143A0403C1B1AE7AC421ABF05EA70
:103800001357AF4212E050EA41061CBF52EA43068A
:10381000BFE750EA4107304661461CBF41EA055107
:10382000F0BD52EA430C08BFC143F0BD00204FF485
:10383000001616EB410F98BF16EB430F08BF16EBAF
:10384000410F24BFC14305E016EB430F0CBF614697
:103850004CEA0551F0BD010030B400230022446859
:103860002300DFF8904123400C680D7954EA0524C9
:10387000234343608368DFF880412340CC688D6830
:103880002C434D7954EA450423438360C36A33F4DF
:103890007003097C491E0A43D2B253EA0253C36241
:1038A00030BC7047C9B2002904D0816851F00101D1
:1038B000816003E081684908490081607047C9B2AE
:1038C000002905D081684FF480721143816003E0C4
:1038D000816831F4807181607047816851F008011E
:1038E0008160704700218068000701D5012100E058
:1038F00000210800C0B27047816851F00401816066
:10390000704700218068400701D5012100E00021B7
:103910000800C0B27047C9B2002904D0816851F4D0
:10392000A001816003E0816831F4A00181607047EB
:10393000F0B400240025C9B20A2911D3C4680725B0
:10394000B1F10A0603277E43B540AC43DBB2B1F1C7
:103950000A050326754313FA05F52C43C4600EE0EF
:1039600004690725032606FB01F6B540AC43DBB22C
:10397000032505FB01F513FA05F52C430461D2B2CA
:10398000072A10D2446B1F23551E0526754313FAD0
:1039900005F5AC43C9B2521E05235A4311FA02F58C
:1039A0002C43446324E0D2B20D2A10D2046B1F23AF
:1039B000D51F0526754313FA05F5AC43C9B2D21FCE
:1039C00005235A4311FA02F52C43046310E0C46A3C
:1039D0001F23B2F10D050526754313FA05F5AC4317
:1039E000C9B20D3A05235A4311FA02F52C43C462B9
:1039F000F0BC7047FFFEF0FFFDF7F1FF01684908DA
:103A000049000160002101600021416000218160C6
:103A10000021C1605A49401A18D014381DD01438FA
:103A200022D0143827D014382CD0143831D0143880
:103A300036D04FF46271401A39D014383ED0143861
:103A400043D0143848D014384DD053E04D48006866
:103A500050F00F004B4908604CE04A48006850F0B5
:103A6000F0004849086045E04648006850F470603E
:103A7000444908603EE04348006850F470404149C2
:103A8000086037E03F48006850F470203D49086006
:103A900030E03C48006850F470003A49086029E082
:103AA0003848006850F070603649086022E03648B7
:103AB000006850F00F00344908601BE0324800688D
:103AC00050F0F0003049086014E02F48006850F4CE
:103AD00070602D4908600DE02B48006850F470407C
:103AE0002949086006E02848006850F470202649FB
:103AF0000860FFE7704710B4002203681A00234BE8
:103B00001A408B680C6A23430C6923434C69234396
:103B10008C692343CC6923434C6A23438C6A234337
:103B20001A430260CA6842600A6882604968C160DC
:103B300010BC7047C9B2002904D0016851F00101DE
:103B4000016003E0016849084900016070470021F5
:103B50000022C30002D50E490A6801E00D490A6837
:103B6000024201D0012100E000210800C0B27047EC
:103B7000C10002D50449086001E0024908607047AD
:103B80000800024004000240040402400F80FFFFCE
:103B90000004024000000240F8B504000D000026B9
:103BA00001276888002801D1022600E00026A888A5
:103BB000012801D1022700E001272888002816D11A
:103BC0002B89AA886988200000F08DF8E9882000F8
:103BD00000F059F82B893A0092B2310089B22000E6
:103BE00000F09DF8E988200000F056F815E02B89D8
:103BF000AA886988200000F092F8E988200000F087
:103C00004BF82B893A0092B2310089B2200000F0C3
:103C10006AF8E988200000F036F8F1BDC9B2002941
:103C200004D0018851F00101018004E0018840F2D4
:103C3000FE32114001807047D2B2002A03D082893F
:103C40001143818103E0828932EA01018181704759
:103C5000002203891A004FF68F731A400A4302812B
:103C6000704702894FF6F8731A40028102891143A6
:103C70000181704702894FF67F731A4002810289E1
:103C8000114301817047028B4FF6F3731A40028390
:103C9000028B114301837047028B4FF2FF331A40AE
:103CA0000283028B52EA012101837047808E7047A4
:103CB00030B4002200230024058A0D402B008089A7
:103CC000084004009BB2002B04D0A4B2002C01D009
:103CD000012200E000221000C0B230BC704789B25F
:103CE000C94301827047F0B400240025068C4FF6CA
:103CF000FE773E400684068B3400068C35004FF676
:103D00000C76344052EA031214434FF6FD7215400C
:103D100051F001010D4304830584F0BC7047F0B4F9
:103D2000002500260024078C4FF6EF7C1CEA0707CD
:103D30000784078B3D00078C3E0009010C0040F60C
:103D4000FF410D4055EA033555EA02254FF6DF7174
:103D50000E4054F010010E4305830684F0BC7047FA
:103D600072B6704762B67047EFF3108072B6704754
:103D700080F310887047B0FA80F0704790FAA0F096
:103D8000704730BF704720BF7047200038B5C0B2C1
:103D9000002817D0022816D015D3042814D012D327
:103DA000062828D01CD308280CD00BD30A2809D009
:103DB00008D30C2807D006D30E2804D002D30F282E
:103DC00024D02EE04FE04EE0FFF7CEFFDFF8981052
:103DD000096851F48031244A1160FFF7C9FF42E0BD
:103DE000FFF7C2FF2049096851F400311E4A1160F3
:103DF000FFF7BEFF37E0FFF7B7FF1B49096851F433
:103E00008021194A1160FFF7B3FF2CE0FFF7ACFFE8
:103E10001649096851F00101144A1160FFF7A8FF23
:103E200021E013490968491C11F01F014901491C8F
:103E3000C0B2C9B2884216D2C0B2B0F1100120227D
:103E400091FBF2F4C0B21038202190FBF1F505FB94
:103E50001105FFF789FFE4B206490122AA4041F8A3
:103E60002420FFF785FF31BD24ED00E010E000E0E5
:103E700004E000E000E100E080B58C211148FDF78E
:103E800084FF1049104A00200BE000230B704A60A9
:103E90003F238B720023CB7201F21C0102F21C0241
:103EA000401C80B20428F0D3002008700020486035
:103EB0003F2088720020C87201480249016001BD9C
:103EC000F82100209C1F0020B81F002080B5B421DD
:103ED0001148FDF75AFF104800210EE089B2242254
:103EE0000D4B02FB013202F2240242603F220275B6
:103EF0000022427500F22400491C89B20429EDD346
:103F0000002141603F2101750021417501480249AE
:103F1000016001BD1C220020E81E002080B5602148
:103F20000B48FDF732FF0A490A4A002003E00A6005
:103F300018311832401C80B20328F8D300200860E2
:103F400002480349016001BD00000000202200205A
:103F5000282100204021002080B590480068FEF70D
:103F600011FFC0B202BD80B54FF450718F48FDF70C
:103F70000CFF40218E48FDF708FF8C498D4A002038
:103F800010E064230B70002381F83130CA603F23B6
:103F900081F82030002381F8213001F2340102F24F
:103FA0003402401C80B20F28EBD36420087000203C
:103FB00081F831000020C8603F2081F820000020F7
:103FC00081F82100744800210160764800210180B9
:103FD0007548102101807248744901600120FEF784
:103FE00027FE754908600020FEF722FE6B49086035
:103FF00000AA724970480068FDF7BCFB00AA70492E
:1040000066480068FDF7B6FB00F001F801BD10B589
:1040100086B003200490002003908020029069481D
:1040200001904FF6FD7000901D23674A00210FF2AA
:10403000ED00FEF761F8040005AA64491D20FEF7B3
:10404000C3F806B010BD032280F83120C9B201299F
:1040500005D1C169504A1268511841610DE081696A
:10406000002905D1C1694C4A12685118416104E028
:104070008169494A12685118416142690823B2FBBB
:10408000F3F101FB132189B2494A12EBC102116815
:10409000002905D110600021C1600121918006E056
:1040A00011681060C16008619188491C91800021ED
:1040B0000161704742690823B2FBF3F101FB132150
:1040C00089B23B4A12EBC1031968814206D1C1682B
:1040D0001960002908D000220A6105E00169C26860
:1040E000CA60002A00D01161012180F8311000213E
:1040F000C160002101619888401E9880704780B59A
:1041000000AA00212C480068FEF7BAFD01BD80B569
:1041100029480068FEF736FE01BD000038B501E011
:10412000FFF7F5FF00AA00211C480068FEF7A8FD74
:10413000FFF7E5FF18480068401C1749086016485B
:1041400001680822B1FBF2F000FB121080B218499E
:1041500011EBC000046803E0022084F831002C0059
:10416000002CDDD0E5680C48006861698842F6D112
:1041700062681000002802D0A1682000904720004B
:10418000FFF798FF94F830000228E5D101212000C4
:10419000FFF759FFE3E7000028220020302200202B
:1041A000342200203E2200203C22002078060020FD
:1041B00088210020AC0600202C2200205C73000027
:1041C00068730000B8170020B419002018730000AD
:1041D0002C482D4908002D4908002D4908002D497B
:1041E00008002D4908002D4908002D4908002D49D7
:1041F00008002D4908002D4908002D4908002D49C7
:1042000008002D4908002D4908002D4908002D49B6
:1042100008002D4908002D4908002D4908002D49A6
:1042200008002D4908002D4908002D4908002D4996
:1042300008002D4908002D4908002D4908002D4986
:1042400008002D4908002D4908002D4908002D4976
:1042500008002D4908002D4908002D4908002D4966
:1042600008002D4908002D4908002D4908002D4956
:1042700008002D4908002D4908002D4908002D4946
:10428000080070478A3300009C730000023400006D
:10429000C2350000563800008A3D000066720000FA
:1042A00072720000A4730000A6730000A8730000DF
:1042B000AA730000AC730000AE730000B07300007E
:1042C000B2730000B4730000B6730000B87300004E
:1042D000BA730000BC730000BE730000C07300001E
:1042E000C2730000C4730000C6730000C8730000EE
:1042F000CA730000CC730000CE730000D0730000BE
:10430000D2730000D4730000D6730000D87300008D
:10431000DA730000DC730000DE730000E07300005D
:10432000E2730000E4730000E6730000E87300002D
:10433000EA730000EC730000DFF8C802006850F078
:104340000100DFF8C0120860DFF8BC020068DFF887
:10435000BC120840DFF8B0120860DFF8A80200685D
:10436000DFF8AC120840DFF89C120860DFF8940216
:10437000006830F48020DFF88C120860DFF88802D3
:10438000006830F4FE00DFF880120860DFF8840275
:10439000002101607047DFF86C12096831F4803148
:1043A000DFF860221160DFF85C12096831F48021C7
:1043B000DFF850221160B0F5803F03D0B0F5802FB8
:1043C00009D011E0DFF83C02006850F48030DFF8DB
:1043D0003412086008E0DFF82C02006850F4A020D6
:1043E000DFF820120860FFE7704780B500200090DA
:1043F00000200021312000F0E2F801000098401C6C
:104400000090C9B2002903D10098B0F5A06FF1D196
:10441000312000F0D4F8002801D0012000E0002075
:10442000C0B202BD0022784B1B681A0032F47C1225
:10443000084302437448026070477749C0B208607D
:1044400070470021704A12681100890889000143F1
:104450006D48016070476C48006810F00C007047B0
:104460000021694A1268110031F0F00101436648E9
:10447000016070470021644A1268110031F4E06164
:10448000014361480160704700215F4A12681100D2
:1044900031F4605151EAC0015B480160704730B4AB
:1044A0000022002100230024574D2D6815F00C0533
:1044B0002A00002A04D0042A05D0082A06D021E0C8
:1044C0005749016020E0564901601DE04E490968E6
:1044D00011F47011890C891C4B4A126812F4803354
:1044E000002B03D14F4A514301600AE0464A12684B
:1044F000920303D54B4A5143016002E0484A5143BD
:10450000016001E0464901603F49096811F0F0028D
:1045100012094549545C0168E14041603A49096823
:1045200011F4E062120A4049545C4168E140816044
:104530003549096811F46052D20A3B49545C41681C
:10454000E140C1603049096811F44042920B37499B
:10455000545CC168B1FBF4F1016130BC7047C9B271
:10456000002905D03249096808433149086005E04F
:104570002F49096831EA00002D4908607047C9B227
:10458000002905D02B49096808432A49086005E03D
:104590002849096831EA0000264908607047C9B215
:1045A000002905D02449096808432349086005E02B
:1045B0002149096831EA00001F490860704710B4BA
:1045C000002200230021C0B24409E4B22200012AE3
:1045D00002D10C490B6806E0022A02D10F490B6890
:1045E00001E016490B68C0B210F01F020120904094
:1045F000034201D0012100E000210800C0B210BC3C
:104600007047000000100240041002400000FFF854
:10461000FFFFF6FE081002406000424220100240F8
:1046200000127A0000093D0028730000A07300000A
:1046300014100240181002401C10024024100240C6
:104640000B49096811F03801094A116008490968E5
:1046500008430749086070470549096831F01001AF
:10466000034A11600249096808430149086070471C
:104670000020024010B4002203881A0012F44152B4
:104680000B884C8823438C882343CC8823430C8994
:1046900023434C8923438C892343CC8923431A43E6
:1046A0000280828B4FF2FF731A408283098A018253
:1046B00010BC7047C9B2002904D0018851F04001F4
:1046C000018004E001884FF6BF72114001807047FD
:1046D000818170478089704700220089084201D09B
:1046E000012200E000221000C0B270478179002949
:1046F00038D02349096802689143214A1160214951
:104700000968026891431F4A116001791C4A515897
:104710000268114302791A4B99501B4909680268D3
:104720009143194A11601949096802689143174A6F
:104730001160417910290CD11349096802681143AD
:10474000114A116011490968006808430F4908605F
:1047500010E041790A4A5158026811434079084AE9
:10476000115007E00179064A5158026891430079D7
:10477000034A115070470649086070470000000066
:104780000004014004040140080401400C040140FD
:104790001404014010B5040002210B48FFF79CFFF0
:1047A0000028F9D0E4B2210089B20748FFF790FF52
:1047B00001210548FFF790FF0028F9D00248FFF7D4
:1047C00089FFC0B210BD00BF00300140EEB1120041
:1047D0000000C80002000000C90002000000CA007A
:1047E00002000000CB0002000000CC00020000002C
:1047F000CD0002000000CE0002000000CF00020049
:104800000000D00002000000D10002000000D20031
:1048100002000000D30002000000D40002000000EB
:10482000D50002000000D60002000000D700020000
:104830000000D80002000000D90002000000DA00E9
:1048400002000000DB00020000FFFCFFFFEEB112DF
:10485000000000C80002000100C90002000000CAF8
:104860000002000000CB0002000000CC00020000AB
:1048700000CD0002000000CE0002000000CF0002C8
:10488000000000D00002000000D10002000000D2B1
:104890000002000000D30002000000D4000200006B
:1048A00000D50002000000D60002000000D7000280
:1048B000000000D80002000000D90002000000DA69
:1048C0000002000000DB00020000FFFCFFFFEEB171
:1048D00012000000C80002000100C900020001002F
:1048E000CA0002000000CB0002000000CC00020061
:1048F0000000CD0002000000CE0002000000CF004A
:1049000002000000D00002000000D1000200000000
:10491000D20002000000D30002000000D400020018
:104920000000D50002000000D60002000000D70001
:1049300002000000D80002000000D90002000000C0
:10494000DA0002000000DB00020000FFFCFFFFEEC7
:10495000B112000000C80002000100C900020001FD
:1049600000CA0002000100CB0002000000CC0002DF
:10497000000000CD0002000000CE0002000000CFC9
:104980000002000000D00002000000D10002000080
:1049900000D20002000000D30002000000D4000298
:1049A000000000D50002000000D60002000000D781
:1049B0000002000000D80002000000D90002000040
:1049C00000DA0002000000DB00020000FFFCFFFF35
:1049D000EEB112000000C80002000100C900020090
:1049E0000100CA0002000100CB0002000100CC005F
:1049F00002000000CD0002000000CE000200000016
:104A0000CF0002000000D00002000000D100020030
:104A10000000D20002000000D30002000000D40019
:104A200002000000D50002000000D60002000000D5
:104A3000D70002000000D80002000000D9000200E8
:104A40000000DA0002000000DB00020000FFFCFFB3
:104A5000FFEEB112000000C80002000100C9000210
:104A6000000100CA0002000100CB0002000100CCDE
:104A70000002000100CD0002000000CE0002000094
:104A800000CF0002000000D00002000000D10002B0
:104A9000000000D20002000000D30002000000D499
:104AA0000002000000D50002000000D60002000055
:104AB00000D70002000000D80002000000D9000268
:104AC000000000DA0002000000DB00020000FFFC32
:104AD000FFFFEEB112000000C80002000100C90093
:104AE00002000100CA0002000100CB000200010028
:104AF000CC0002000100CD0002000100CE00020047
:104B00000000CF0002000000D00002000000D10031
:104B100002000000D20002000000D30002000000EA
:104B2000D40002000000D50002000000D600020000
:104B30000000D70002000000D80002000000D900E9
:104B400002000000DA0002000000DB00020000FFAB
:104B5000FCFFFFEEB112000000C80002000100C916
:104B60000002000100CA0002000100CB00020001A7
:104B700000CC0002000100CD0002000100CE0002C6
:104B8000000100CF0002000000D00002000000D1B0
:104B90000002000000D20002000000D3000200006A
:104BA00000D40002000000D50002000000D6000280
:104BB000000000D70002000000D80002000000D969
:104BC0000002000000DA0002000000DB000200002A
:104BD000FFFCFFFFEEB112000000C8000200010060
:104BE000C90002000100CA0002000100CB0002005F
:104BF0000100CC0002000100CD0002000100CE0047
:104C000002000100CF0002000100D00002000000FD
:104C1000D10002000000D20002000000D300020018
:104C20000000D40002000000D50002000000D60001
:104C300002000000D70002000000D80002000000BF
:104C4000D90002000000DA0002000000DB000200D0
:104C500000FFFCFFFFEEB112000000C800020001DF
:104C600000C90002000100CA0002000100CB0002DE
:104C7000000100CC0002000100CD0002000100CEC6
:104C80000002000100CF0002000100D0000200017C
:104C900000D10002000000D20002000000D3000298
:104CA000000000D40002000000D50002000000D681
:104CB0000002000000D70002000000D8000200003F
:104CC00000D90002000000DA0002000000DB000250
:104CD0000000FFFCFFFFEEB112000000C800020060
:104CE0000100C90002000100CA0002000100CB005F
:104CF00002000100CC0002000100CD000200010012
:104D0000CE0002000100CF0002000100D00002002E
:104D10000100D10002000100D20002000000D30017
:104D200002000000D40002000000D50002000000D4
:104D3000D60002000000D70002000000D8000200E8
:104D40000000D90002000000DA0002000000DB00D1
:104D5000020000FFFCFFFFEEB112000000C80002DD
:104D6000000100C90002000100CA0002000100CBDE
:104D70000002000100CC0002000100CD0002000191
:104D800000CE0002000100CF0002000100D00002AE
:104D9000000100D10002000100D20002000100D396
:104DA0000002000000D40002000000D50002000054
:104DB00000D60002000000D70002000000D8000268
:104DC000000000D90002000000DA0002000000DB51
:104DD00000020000FFFCFFFFEEB112000000C8005F
:104DE00002000100C90002000100CA000200010027
:104DF000CB0002000100CC0002000100CD00020047
:104E00000100CE0002000100CF0002000100D0002E
:104E100002000100D10002000100D20002000100E6
:104E2000D30002000100D40002000000D5000200FF
:104E30000000D60002000000D70002000000D800E9
:104E400002000000D90002000000DA0002000000A9
:104E5000DB00020000FFFCFFFFEEB112000000C803
:104E60000002000100C90002000100CA00020001A6
:104E700000CB0002000100CC0002000100CD0002C6
:104E8000000100CE0002000100CF0002000100D0AE
:104E90000002000100D10002000100D20002000166
:104EA00000D30002000100D40002000100D500027E
:104EB000000000D60002000000D70002000000D869
:104EC0000002000000D90002000000DA0002000029
:104ED00000DB00020000FFFCFFFFEEB1120000004B
:104EE000C80002000100C90002000100CA0002005F
:104EF0000100CB0002000100CC0002000100CD0047
:104F000002000100CE0002000100CF0002000100FB
:104F1000D00002000100D10002000100D200020016
:104F20000100D30002000100D40002000100D500FE
:104F300002000100D60002000000D70002000000BD
:104F4000D80002000000D90002000000DA000200D0
:104F50000000DB00020000FFFCFFFFEEB1120000CA
:104F600000C80002000100C90002000100CA0002DE
:104F7000000100CB0002000100CC0002000100CDC6
:104F80000002000100CE0002000100CF000200017B
:104F900000D00002000100D10002000100D2000296
:104FA000000100D30002000100D40002000100D57E
:104FB0000002000100D60002000100D7000200003C
:104FC00000D80002000000D90002000000DA000250
:104FD000000000DB00020000FFFCFFFFEEB112004A
:104FE0000000C80002000100C90002000100CA0060
:104FF00002000100CB0002000100CC000200010011
:10500000CD0002000100CE0002000100CF0002002E
:105010000100D00002000100D10002000100D20016
:1050200002000100D30002000100D40002000100D0
:10503000D50002000100D60002000100D7000200E6
:105040000100D80002000000D90002000000DA00D0
:1050500002000000DB00020000FFFCFFFFEEB112C7
:10506000000000C80002000100C90002000100CADF
:105070000002000100CB0002000100CC0002000190
:1050800000CD0002000100CE0002000100CF0002AE
:10509000000100D00002000100D10002000100D296
:1050A0000002000100D30002000100D40002000150
:1050B00000D50002000100D60002000100D7000266
:1050C000000100D80002000100D90002000000DA4F
:1050D0000002000000DB00020000FFFCFFFFEEB159
:1050E00012000000C80002000100C9000200010017
:1050F000CA0002000100CB0002000100CC00020047
:105100000100CD0002000100CE0002000100CF002E
:1051100002000100D00002000100D10002000100E5
:10512000D20002000100D30002000100D4000200FE
:105130000100D50002000100D60002000100D700E6
:1051400002000100D80002000100D90002000100A5
:10515000DA0002000000DB00020000FFFCFFFFEEAF
:10516000B112000000C80002000100C900020001E5
:1051700000CA0002000100CB0002000100CC0002C6
:10518000000100CD0002000100CE0002000100CFAE
:105190000002000100D00002000100D10002000165
:1051A00000D20002000100D30002000100D400027E
:1051B000000100D50002000100D60002000100D766
:1051C0000002000100D80002000100D90002000125
:1051D00000DA0002000100DB00020000FFFCFFFF1C
:1051E000EEB112000000C80002000100C900020078
:1051F0000100CA0002000100CB0002000100CC0047
:1052000002000100CD0002000100CE0002000100FA
:10521000CF0002000100D00002000100D100020016
:105220000100D20002000100D30002000100D400FE
:1052300002000100D50002000100D60002000100BA
:10524000D70002000100D80002000100D9000200CE
:105250000100DA0002000100DB00020001FFFCFF98
:10526000FF000000EEB112000000DC0002000000B0
:10527000DD0002000000DE0002000000DF0002008E
:105280000000E00002000000E10002000000E20077
:1052900002000000E30002000000E4000200000041
:1052A000E50002000000E60002000000E700020046
:1052B0000000E80002000000E90002000000EA002F
:1052C00002000000EB0002000000EC000200000001
:1052D000ED0002000000EE0002000000EF000200FE
:1052E00000FFFCFFFFEEB112000000DC0002000135
:1052F00000DD0002000000DE0002000000DF00020E
:10530000000000E00002000000E10002000000E2F6
:105310000002000000E30002000000E400020000C0
:1053200000E50002000000E60002000000E70002C5
:10533000000000E80002000000E90002000000EAAE
:105340000002000000EB0002000000EC0002000080
:1053500000ED0002000000EE0002000000EF00027D
:105360000000FFFCFFFFEEB112000000DC000200B5
:105370000100DD0002000100DE0002000000DF008D
:1053800002000000E00002000000E1000200000056
:10539000E20002000000E30002000000E40002005E
:1053A0000000E50002000000E60002000000E70047
:1053B00002000000E80002000000E9000200000016
:1053C000EA0002000000EB0002000000EC00020016
:1053D0000000ED0002000000EE0002000000EF00FF
:1053E000020000FFFCFFFFEEB112000000DC000233
:1053F000000100DD0002000100DE0002000100DF0C
:105400000002000000E00002000000E100020000D5
:1054100000E20002000000E30002000000E40002DD
:10542000000000E50002000000E60002000000E7C6
:105430000002000000E80002000000E90002000095
:1054400000EA0002000000EB0002000000EC000295
:10545000000000ED0002000000EE0002000000EF7E
:1054600000020000FFFCFFFFEEB112000000DC00B4
:1054700002000100DD0002000100DE000200010068
:10548000DF0002000100E00002000000E100020075
:105490000000E20002000000E30002000000E4005F
:1054A00002000000E50002000000E600020000002B
:1054B000E70002000000E80002000000E90002002E
:1054C0000000EA0002000000EB0002000000EC0017
:1054D00002000000ED0002000000EE0002000000EB
:1054E000EF00020000FFFCFFFFEEB112000000DC45
:1054F0000002000100DD0002000100DE00020001E8
:1055000000DF0002000100E00002000100E10002F3
:10551000000000E20002000000E30002000000E4DE
:105520000002000000E50002000000E600020000AA
:1055300000E70002000000E80002000000E90002AD
:10554000000000EA0002000000EB0002000000EC96
:105550000002000000ED0002000000EE000200006A
:1055600000EF00020000FFFCFFFFEEB112000000A0
:10557000DC0002000100DD0002000100DE0002008C
:105580000100DF0002000100E00002000100E10074
:1055900002000100E20002000000E300020000003F
:1055A000E40002000000E50002000000E600020046
:1055B0000000E70002000000E80002000000E9002F
:1055C00002000000EA0002000000EB000200000000
:1055D000EC0002000000ED0002000000EE000200FE
:1055E0000000EF00020000FFFCFFFFEEB112000020
:1055F00000DC0002000100DD0002000100DE00020C
:10560000000100DF0002000100E00002000100E1F3
:105610000002000100E20002000100E300020000BD
:1056200000E40002000000E50002000000E60002C5
:10563000000000E70002000000E80002000000E9AE
:105640000002000000EA0002000000EB000200007F
:1056500000EC0002000000ED0002000000EE00027D
:10566000000000EF00020000FFFCFFFFEEB112009F
:105670000000DC0002000100DD0002000100DE008D
:1056800002000100DF0002000100E0000200010052
:10569000E10002000100E20002000100E30002005C
:1056A0000100E40002000000E50002000000E60046
:1056B00002000000E70002000000E8000200000015
:1056C000E90002000000EA0002000000EB00020016
:1056D0000000EC0002000000ED0002000000EE00FF
:1056E00002000000EF00020000FFFCFFFFEEB1121D
:1056F000000000DC0002000100DD0002000100DE0D
:105700000002000100DF0002000100E000020001D1
:1057100000E10002000100E20002000100E30002DB
:10572000000100E40002000100E50002000000E6C4
:105730000002000000E70002000000E80002000094
:1057400000E90002000000EA0002000000EB000295
:10575000000000EC0002000000ED0002000000EE7E
:105760000002000000EF00020000FFFCFFFFEEB1AE
:1057700012000000DC0002000100DD000200010058
:10578000DE0002000100DF0002000100E000020074
:105790000100E10002000100E20002000100E3005C
:1057A00002000100E40002000100E5000200010027
:1057B000E60002000000E70002000000E80002002E
:1057C0000000E90002000000EA0002000000EB0017
:1057D00002000000EC0002000000ED0002000000EA
:1057E000EE0002000000EF00020000FFFCFFFFEEF1
:1057F000B112000000DC0002000100DD0002000127
:1058000000DE0002000100DF0002000100E00002F3
:10581000000100E10002000100E20002000100E3DB
:105820000002000100E40002000100E500020001A6
:1058300000E60002000100E70002000000E80002AC
:10584000000000E90002000000EA0002000000EB96
:105850000002000000EC0002000000ED0002000069
:1058600000EE0002000000EF00020000FFFCFFFF5E
:10587000EEB112000000DC0002000100DD000200B9
:105880000100DE0002000100DF0002000100E00074
:1058900002000100E10002000100E200020001003C
:1058A000E30002000100E40002000100E500020044
:1058B0000100E60002000100E70002000100E8002C
:1058C00002000000E90002000000EA0002000000FF
:1058D000EB0002000000EC0002000000ED000200FE
:1058E0000000EE0002000000EF00020000FFFCFFDD
:1058F000FFEEB112000000DC0002000100DD00023A
:10590000000100DE0002000100DF0002000100E0F3
:105910000002000100E10002000100E200020001BB
:1059200000E30002000100E40002000100E50002C3
:10593000000100E60002000100E70002000100E8AB
:105940000002000100E90002000000EA000200007D
:1059500000EB0002000000EC0002000000ED00027D
:10596000000000EE0002000000EF00020000FFFC5B
:10597000FFFFEEB112000000DC0002000100DD00BC
:1059800002000100DE0002000100DF000200010051
:10599000E00002000100E10002000100E20002005C
:1059A0000100E30002000100E40002000100E50044
:1059B00002000100E60002000100E7000200010011
:1059C000E80002000100E90002000100EA00020014
:1059D0000000EB0002000000EC0002000000ED00FF
:1059E00002000000EE0002000000EF00020000FFD5
:1059F000FCFFFFEEB112000000DC0002000100DD40
:105A00000002000100DE0002000100DF00020001D0
:105A100000E00002000100E10002000100E20002DB
:105A2000000100E30002000100E40002000100E5C3
:105A30000002000100E60002000100E70002000190
:105A400000E80002000100E90002000100EA000293
:105A5000000100EB0002000000EC0002000000ED7D
:105A60000002000000EE0002000000EF0002000053
:105A7000FFFCFFFFEEB112000000DC00020001009D
:105A8000DD0002000100DE0002000100DF00020074
:105A90000100E00002000100E10002000100E2005C
:105AA00002000100E30002000100E4000200010026
:105AB000E50002000100E60002000100E70002002C
:105AC0000100E80002000100E90002000100EA0014
:105AD00002000100EB0002000100EC0002000000E7
